{
  "_format": "hh-sol-artifact-1",
  "contractName": "ClearingHouse_1",
  "sourceName": "contracts/TwoWayBridge.sol",
  "abi": [
    {
      "inputs": [
        {
          "internalType": "address",
          "name": "_controlledToken",
          "type": "address"
        }
      ],
      "stateMutability": "nonpayable",
      "type": "constructor"
    },
    {
      "anonymous": false,
      "inputs": [
        {
          "indexed": true,
          "internalType": "address",
          "name": "previousOwner",
          "type": "address"
        },
        {
          "indexed": true,
          "internalType": "address",
          "name": "newOwner",
          "type": "address"
        }
      ],
      "name": "OwnershipTransferred",
      "type": "event"
    },
    {
      "anonymous": false,
      "inputs": [
        {
          "indexed": true,
          "internalType": "uint256",
          "name": "amount",
          "type": "uint256"
        },
        {
          "indexed": false,
          "internalType": "string",
          "name": "receiver",
          "type": "string"
        }
      ],
      "name": "TokensBurned",
      "type": "event"
    },
    {
      "inputs": [],
      "name": "_owner",
      "outputs": [
        {
          "internalType": "address",
          "name": "",
          "type": "address"
        }
      ],
      "stateMutability": "view",
      "type": "function"
    },
    {
      "inputs": [
        {
          "internalType": "uint256",
          "name": "amount",
          "type": "uint256"
        },
        {
          "internalType": "string",
          "name": "receiver",
          "type": "string"
        }
      ],
      "name": "deposit",
      "outputs": [],
      "stateMutability": "nonpayable",
      "type": "function"
    },
    {
      "inputs": [
        {
          "internalType": "address",
          "name": "token",
          "type": "address"
        },
        {
          "internalType": "uint256",
          "name": "amount",
          "type": "uint256"
        },
        {
          "internalType": "uint256",
          "name": "nonce",
          "type": "uint256"
        },
        {
          "internalType": "address",
          "name": "sender",
          "type": "address"
        }
      ],
      "name": "encode",
      "outputs": [
        {
          "internalType": "bytes",
          "name": "",
          "type": "bytes"
        }
      ],
      "stateMutability": "pure",
      "type": "function"
    },
    {
      "inputs": [
        {
          "internalType": "bytes",
          "name": "x",
          "type": "bytes"
        }
      ],
      "name": "hash",
      "outputs": [
        {
          "internalType": "bytes32",
          "name": "",
          "type": "bytes32"
        }
      ],
      "stateMutability": "pure",
      "type": "function"
    },
    {
      "inputs": [
        {
          "internalType": "bytes32",
          "name": "_messageHash",
          "type": "bytes32"
        }
      ],
      "name": "hashEthMsg",
      "outputs": [
        {
          "internalType": "bytes32",
          "name": "",
          "type": "bytes32"
        }
      ],
      "stateMutability": "pure",
      "type": "function"
    },
    {
      "inputs": [],
      "name": "owner",
      "outputs": [
        {
          "internalType": "address",
          "name": "",
          "type": "address"
        }
      ],
      "stateMutability": "view",
      "type": "function"
    },
    {
      "inputs": [],
      "name": "renounceOwnership",
      "outputs": [],
      "stateMutability": "nonpayable",
      "type": "function"
    },
    {
      "inputs": [
        {
          "internalType": "address",
          "name": "newOwner",
          "type": "address"
        }
      ],
      "name": "transferOwnership",
      "outputs": [],
      "stateMutability": "nonpayable",
      "type": "function"
    },
    {
      "inputs": [
        {
          "internalType": "address",
          "name": "token",
          "type": "address"
        },
        {
          "internalType": "uint256",
          "name": "amount",
          "type": "uint256"
        },
        {
          "internalType": "uint256",
          "name": "nonce",
          "type": "uint256"
        },
        {
          "internalType": "uint8",
          "name": "v",
          "type": "uint8"
        },
        {
          "internalType": "bytes32",
          "name": "r",
          "type": "bytes32"
        },
        {
          "internalType": "bytes32",
          "name": "s",
          "type": "bytes32"
        }
      ],
      "name": "withdraw",
      "outputs": [],
      "stateMutability": "nonpayable",
      "type": "function"
    }
  ],
  "bytecode": "0x60806040523480156200001157600080fd5b506040516200158b3803806200158b833981810160405281019062000037919062000131565b336000806101000a81548173ffffffffffffffffffffffffffffffffffffffff021916908373ffffffffffffffffffffffffffffffffffffffff1602179055503373ffffffffffffffffffffffffffffffffffffffff16600073ffffffffffffffffffffffffffffffffffffffff167f8be0079c531659141344cd1fd0a4f28419497f9722a3daafe3b4186f6b6457e060405160405180910390a380600260006101000a81548173ffffffffffffffffffffffffffffffffffffffff021916908373ffffffffffffffffffffffffffffffffffffffff16021790555050620001ab565b6000815190506200012b8162000191565b92915050565b6000602082840312156200014457600080fd5b600062000154848285016200011a565b91505092915050565b60006200016a8262000171565b9050919050565b600073ffffffffffffffffffffffffffffffffffffffff82169050919050565b6200019c816200015d565b8114620001a857600080fd5b50565b6113d080620001bb6000396000f3fe608060405234801561001057600080fd5b50600436106100935760003560e01c8063aa1e84de11610066578063aa1e84de1461010c578063b2bdfa7b1461013c578063e9aef01b1461015a578063f1215d251461018a578063f2fde38b146101a657610093565b806312a9374a14610098578063715018a6146100c85780638da5cb5b146100d25780639386ce2b146100f0575b600080fd5b6100b260048036038101906100ad9190610c12565b6101c2565b6040516100bf9190610f2a565b60405180910390f35b6100d06101f2565b005b6100da61033e565b6040516100e79190610e6a565b60405180910390f35b61010a60048036038101906101059190610b60565b610367565b005b61012660048036038101906101219190610c3b565b6105db565b6040516101339190610f2a565b60405180910390f35b6101446105ec565b6040516101519190610e6a565b60405180910390f35b610174600480360381019061016f9190610afd565b610610565b6040516101819190610f8a565b60405180910390f35b6101a4600480360381019061019f9190610c7c565b610642565b005b6101c060048036038101906101bb9190610ad4565b6107e0565b005b6000816040516020016101d59190610e44565b604051602081830303815290604052805190602001209050919050565b3373ffffffffffffffffffffffffffffffffffffffff1660008054906101000a900473ffffffffffffffffffffffffffffffffffffffff1673ffffffffffffffffffffffffffffffffffffffff1614610280576040517f08c379a00000000000000000000000000000000000000000000000000000000081526004016102779061102e565b60405180910390fd5b600073ffffffffffffffffffffffffffffffffffffffff1660008054906101000a900473ffffffffffffffffffffffffffffffffffffffff1673ffffffffffffffffffffffffffffffffffffffff167f8be0079c531659141344cd1fd0a4f28419497f9722a3daafe3b4186f6b6457e060405160405180910390a360008060006101000a81548173ffffffffffffffffffffffffffffffffffffffff021916908373ffffffffffffffffffffffffffffffffffffffff160217905550565b60008060009054906101000a900473ffffffffffffffffffffffffffffffffffffffff16905090565b600061037587878733610610565b90506000610382826105db565b905061038d816101c2565b90506000600182878787604051600081526020016040526040516103b49493929190610f45565b6020604051602081039080840390855afa1580156103d6573d6000803e3d6000fd5b505050602060405103519050600073ffffffffffffffffffffffffffffffffffffffff168173ffffffffffffffffffffffffffffffffffffffff1614158015610451575061042261033e565b73ffffffffffffffffffffffffffffffffffffffff168173ffffffffffffffffffffffffffffffffffffffff16145b610490576040517f08c379a000000000000000000000000000000000000000000000000000000000815260040161048790610fee565b60405180910390fd5b600260009054906101000a900473ffffffffffffffffffffffffffffffffffffffff1673ffffffffffffffffffffffffffffffffffffffff168973ffffffffffffffffffffffffffffffffffffffff1614610520576040517f08c379a00000000000000000000000000000000000000000000000000000000081526004016105179061100e565b60405180910390fd5b600260009054906101000a900473ffffffffffffffffffffffffffffffffffffffff1673ffffffffffffffffffffffffffffffffffffffff166340c10f19338a6040518363ffffffff1660e01b815260040161057d929190610ebc565b602060405180830381600087803b15801561059757600080fd5b505af11580156105ab573d6000803e3d6000fd5b505050506040513d601f19601f820116820180604052508101906105cf9190610be9565b50505050505050505050565b600081805190602001209050919050565b60008054906101000a900473ffffffffffffffffffffffffffffffffffffffff1681565b6060848484846040516020016106299493929190610ee5565b6040516020818303038152906040529050949350505050565b600260009054906101000a900473ffffffffffffffffffffffffffffffffffffffff1673ffffffffffffffffffffffffffffffffffffffff166323b872dd3330856040518463ffffffff1660e01b81526004016106a193929190610e85565b602060405180830381600087803b1580156106bb57600080fd5b505af11580156106cf573d6000803e3d6000fd5b505050506040513d601f19601f820116820180604052508101906106f39190610be9565b50600260009054906101000a900473ffffffffffffffffffffffffffffffffffffffff1673ffffffffffffffffffffffffffffffffffffffff16639dc29fac30846040518363ffffffff1660e01b8152600401610751929190610ebc565b602060405180830381600087803b15801561076b57600080fd5b505af115801561077f573d6000803e3d6000fd5b505050506040513d601f19601f820116820180604052508101906107a39190610be9565b50817f0666a5f6ae65e87496c94a5940ca3dc5c870546b598ed2992a4e9a61265f1d1e826040516107d49190610fac565b60405180910390a25050565b3373ffffffffffffffffffffffffffffffffffffffff1660008054906101000a900473ffffffffffffffffffffffffffffffffffffffff1673ffffffffffffffffffffffffffffffffffffffff161461086e576040517f08c379a00000000000000000000000000000000000000000000000000000000081526004016108659061102e565b60405180910390fd5b600073ffffffffffffffffffffffffffffffffffffffff168173ffffffffffffffffffffffffffffffffffffffff1614156108de576040517f08c379a00000000000000000000000000000000000000000000000000000000081526004016108d590610fce565b60405180910390fd5b8073ffffffffffffffffffffffffffffffffffffffff1660008054906101000a900473ffffffffffffffffffffffffffffffffffffffff1673ffffffffffffffffffffffffffffffffffffffff167f8be0079c531659141344cd1fd0a4f28419497f9722a3daafe3b4186f6b6457e060405160405180910390a3806000806101000a81548173ffffffffffffffffffffffffffffffffffffffff021916908373ffffffffffffffffffffffffffffffffffffffff16021790555050565b60006109ae6109a984611073565b61104e565b9050828152602081018484840111156109c657600080fd5b6109d1848285611177565b509392505050565b60006109ec6109e7846110a4565b61104e565b905082815260208101848484011115610a0457600080fd5b610a0f848285611177565b509392505050565b600081359050610a2681611327565b92915050565b600081519050610a3b8161133e565b92915050565b600081359050610a5081611355565b92915050565b600082601f830112610a6757600080fd5b8135610a7784826020860161099b565b91505092915050565b600082601f830112610a9157600080fd5b8135610aa18482602086016109d9565b91505092915050565b600081359050610ab98161136c565b92915050565b600081359050610ace81611383565b92915050565b600060208284031215610ae657600080fd5b6000610af484828501610a17565b91505092915050565b60008060008060808587031215610b1357600080fd5b6000610b2187828801610a17565b9450506020610b3287828801610aaa565b9350506040610b4387828801610aaa565b9250506060610b5487828801610a17565b91505092959194509250565b60008060008060008060c08789031215610b7957600080fd5b6000610b8789828a01610a17565b9650506020610b9889828a01610aaa565b9550506040610ba989828a01610aaa565b9450506060610bba89828a01610abf565b9350506080610bcb89828a01610a41565b92505060a0610bdc89828a01610a41565b9150509295509295509295565b600060208284031215610bfb57600080fd5b6000610c0984828501610a2c565b91505092915050565b600060208284031215610c2457600080fd5b6000610c3284828501610a41565b91505092915050565b600060208284031215610c4d57600080fd5b600082013567ffffffffffffffff811115610c6757600080fd5b610c7384828501610a56565b91505092915050565b60008060408385031215610c8f57600080fd5b6000610c9d85828601610aaa565b925050602083013567ffffffffffffffff811115610cba57600080fd5b610cc685828601610a80565b9150509250929050565b610cd981611118565b82525050565b610ce881611136565b82525050565b610cff610cfa82611136565b6111ea565b82525050565b6000610d10826110d5565b610d1a81856110eb565b9350610d2a818560208601611186565b610d3381611223565b840191505092915050565b6000610d49826110e0565b610d5381856110fc565b9350610d63818560208601611186565b610d6c81611223565b840191505092915050565b6000610d84601c8361110d565b9150610d8f82611234565b601c82019050919050565b6000610da76026836110fc565b9150610db28261125d565b604082019050919050565b6000610dca6012836110fc565b9150610dd5826112ac565b602082019050919050565b6000610ded6016836110fc565b9150610df8826112d5565b602082019050919050565b6000610e106020836110fc565b9150610e1b826112fe565b602082019050919050565b610e2f81611160565b82525050565b610e3e8161116a565b82525050565b6000610e4f82610d77565b9150610e5b8284610cee565b60208201915081905092915050565b6000602082019050610e7f6000830184610cd0565b92915050565b6000606082019050610e9a6000830186610cd0565b610ea76020830185610cd0565b610eb46040830184610e26565b949350505050565b6000604082019050610ed16000830185610cd0565b610ede6020830184610e26565b9392505050565b6000608082019050610efa6000830187610cd0565b610f076020830186610e26565b610f146040830185610e26565b610f216060830184610cd0565b95945050505050565b6000602082019050610f3f6000830184610cdf565b92915050565b6000608082019050610f5a6000830187610cdf565b610f676020830186610e35565b610f746040830185610cdf565b610f816060830184610cdf565b95945050505050565b60006020820190508181036000830152610fa48184610d05565b905092915050565b60006020820190508181036000830152610fc68184610d3e565b905092915050565b60006020820190508181036000830152610fe781610d9a565b9050919050565b6000602082019050818103600083015261100781610dbd565b9050919050565b6000602082019050818103600083015261102781610de0565b9050919050565b6000602082019050818103600083015261104781610e03565b9050919050565b6000611058611069565b905061106482826111b9565b919050565b6000604051905090565b600067ffffffffffffffff82111561108e5761108d6111f4565b5b61109782611223565b9050602081019050919050565b600067ffffffffffffffff8211156110bf576110be6111f4565b5b6110c882611223565b9050602081019050919050565b600081519050919050565b600081519050919050565b600082825260208201905092915050565b600082825260208201905092915050565b600081905092915050565b600061112382611140565b9050919050565b60008115159050919050565b6000819050919050565b600073ffffffffffffffffffffffffffffffffffffffff82169050919050565b6000819050919050565b600060ff82169050919050565b82818337600083830152505050565b60005b838110156111a4578082015181840152602081019050611189565b838111156111b3576000848401525b50505050565b6111c282611223565b810181811067ffffffffffffffff821117156111e1576111e06111f4565b5b80604052505050565b6000819050919050565b7f4e487b7100000000000000000000000000000000000000000000000000000000600052604160045260246000fd5b6000601f19601f8301169050919050565b7f19457468657265756d205369676e6564204d6573736167653a0a333200000000600082015250565b7f4f776e61626c653a206e6577206f776e657220697320746865207a65726f206160008201527f6464726573730000000000000000000000000000000000000000000000000000602082015250565b7f496e76616c6964205369676e6174757265210000000000000000000000000000600082015250565b7f496e76616c696420746f6b656e20616464726573732100000000000000000000600082015250565b7f4f776e61626c653a2063616c6c6572206973206e6f7420746865206f776e6572600082015250565b61133081611118565b811461133b57600080fd5b50565b6113478161112a565b811461135257600080fd5b50565b61135e81611136565b811461136957600080fd5b50565b61137581611160565b811461138057600080fd5b50565b61138c8161116a565b811461139757600080fd5b5056fea2646970667358221220c4534ea19bdcd81fcbd83d65d7a935cabb41bdc094217961224ae62f0d16994b64736f6c63430008030033",
  "linkReferences": {},
  "deployedLinkReferences": {}
}